:0F00000075A00075B0F1758920758840758DFD6C
:0F000F00759850C299D28E75A000C2983098FD96
:10001E00E599B44204113C80EFB44604115080E8D7
:10002E00B44C04116480E1B452DE118980DA74118B
:0F003E00C2B2D2B37D107C80F5A02311AEDCF9E5
:10004D00DDF5227411D2B2C2B37D107C80F5A00310
:0F005D0011AEDCF9DDF522D2B2D2B37D047C8086
:10006C007411F5A011AE7428F5A011AE7444F5A06E
:0F007C0011AE7482F5A011AEDCE6DDE222D2B245
:10008B00D2B37D047C807411F5A011AE7482F5A0FF
:10009B0011AE7444F5A011AE7428F5A011AEDCE6D8
:0C00AB00DDE2227A047BFFDBFEDAFA22A1
:00000001FF
