:0200000021508D
:0200030021508A
:02000B00215082
:0200130021507A
:02001B00215072
:0200230021506A
:10005000303132333435363738396162636465663E
:050060006768696A00F9
:100070006B6C6D6E6F707172737475767778797A58
:01008000007F
:100090004142434445464748494A4B4C4D4E4F50D8
:0500A000515253540011
:0700B00055565758595A003C
:0F00D0005468697320697320612074657374002C
:1000F00049732074686973207265616461626C651C
:020100003F00BE
:10011000496620736F202D207468656E20796970A0
:0501200070656521007F
:0F013000426C616820626C616820626C616800DB
:1001500075A80075B8001202FE74AE120299748D73
:0F0160001202997414120299748112029974FF99
:0F016F0012029974D912029974F712029974A1AD
:0F017E0012029974C81202997420120299740027
:10018D0012029974AF12029912028B7542007422F9
:0F019D00120299E542120299E542120299742169
:0F01AC001202997400120299747F120299E542AF
:0F01BB0075F020A4C3345050067583010201CDA6
:1001CA00758300F582E493A36045C3942075F00516
:1001DA00A4C083C0829003202582F582E58335F08E
:1001EA00F583740012029F74009312029FA3740095
:0F01FA009312029FA374009312029FA3740093A9
:1002090012029FA374009312029FD082D08380B6FA
:100219000542E542B408687C00742212029974010F
:0F022900120299740112029974211202997464DD
:10023800120299747F120299740012029F9003208F
:0F02480074102C75F005A42582F582E5F035833E
:10025700F58374009312029FA374009312029FA365
:1002670074009312029FA374009312029FA3740059
:0E0277009312029F1203070CECB40A9F7C0046
:0F02850002022202019B7A047B00740012029F86
:10029400DBF9DAF5227540000202A2754040D296DD
:1002A400D2973096FD3097FDC29651F9C297C0E0BF
:1002B400747851E751F9D29751F9C297E54051E763
:1002C40051F9D29751F9C297D0E051E751F9D29739
:1002D40051F9C297C29651F9D29751F9D29651F970
:1002E40051F9227E0851F9339296D29751F9C29767
:1002F400DEF3D296227F02DFFE227A1F7BFFDBFE33
:0F030400DAFA22C002C003C0047A0F7BFF7CFF2D
:10031300DCFEDBFADAF6D004D003D00222000000C0
:10032300000000065F06000703000703247E247E07
:1003330024242B6A12006313086463364956205041
:100343000007030000003E41000000413E0000089A
:100353003E1C3E0808083E080800E060000008084C
:10036300080808006060000020100804023E51499C
:10037300453E00427F40006251494946224949496E
:10038300361814127F102F494949313C4A494930E4
:1003930001710905033649494936064949291E00B1
:1003A3006C6C000000EC6C00000814224100242453
:1003B300242424004122140802015909063E415D08
:1003C300551E7E1111117E7F494949363E414141F7
:1003D300227F4141413E7F494949417F0909090142
:1003E3003E4149497A7F0808087F00417F41003038
:1003F3004040403F7F081422417F404040407F02FD
:1004030004027F7F0204087F3E4141413E7F090988
:1004130009063E4151215E7F09091966264949496A
:100423003201017F01013F4040403F1F2040201F18
:100433003F403C403F63140814630708700807718A
:1004430049454300007F4141000204081020004158
:10045300417F000402010204808080808000030742
:10046300000020545454787F44444438384444446E
:1004730028384444447F3854545408087E090900FA
:1004830018A4A4A47C7F0404780000007D400040ED
:1004930080847D007F1028440000007F40007C049E
:1004A3001804787C040478003844444438FC4444F9
:1004B300443838444444FC447844040808545454AD
:1004C30020043E4424003C40207C001C2040201C8F
:1004D3003C6030603C6C10106C009CA0603C00647D
:1004E30054544C00083E4141000000770000004195
:0804F300413E08020102010074
:00000001FF
