:060000000200A00200A0B6
:03000B000200A050
:030013000200A048
:03001B000200A040
:030023000200A038
:0F0050000203BD0203A502039402038F02035CA7
:0F005F0002031F0203710200CF0203DF02037BC3
:09006E0002037F02039A020369F8
:1000A000C2AF1200CF41542B50494E33333333008B
:1000B000D2B775812FC200D2AF12037B0D0A434D18
:0F00C000443E00C298120331FA02034D0200B908
:0F00CF00E587D2E7F587758920758DF57588402F
:1000DE007598502202F102F102F102F102F102F1E1
:1000EE0002F102F101DA02F102F102F102F102F182
:1000FE0002F102F1014402F101650130011802F131
:10010E00018C02F102F102F102F1B2B712037B0A85
:0F011E000D546F67676C6564204C6967687400E7
:10012D000200CC12037B41542B50494E33333333F1
:0F013D000012038F0200CC743F12036912038F6C
:0F014C0012031FF812039A743F12036912038FF4
:0F015B0012031FF612039A0200CC743F120369BD
:10016A0012038F12031FF812039A7C10E812039AE3
:0F017A007420120369E612039A12038F08DCED5A
:100189000200CC12038F12037B0A0D426C75657451
:100199006F6F7468204D6F6E69746F722050726F43
:1001A9006772616D0012037B0A0D30382F30332FCF
:1001B900323031322056657273696F6E20316100B9
:0E01C90012037B0A0D6279204368726973008D
:1001D7000200CC12038F12037B0A0D417661696C12
:1001E70061626C6520636F6D6D616E64732061720F
:0E01F7006520617320666F6C6C6F77733A0041
:1002050012037B0A0D506F6B6520202020202D20C6
:1002150027502720666F6C6C6F77656420627920A4
:100225006F6E652D627974652061646472657373A0
:100235002041444452202B20627974650012037BCF
:100245000A0D5265616420202020202D2027522789
:1002550020666F6C6C6F776564206279206F6E65C0
:100265002D627974652061646472657373204144FD
:1002750044520012037B0A0D546F67676C6520209A
:10028500202D2027542720746F20666C69702070FC
:10029500696E20332E370012037B0A0D5665727383
:1002A500696F6E20202D202756272070726F766982
:1002B5006465732076657273696F6E206D657373FF
:1002C5006167650012037B0A0D48656C702020206C
:1002D50020202D2027482720696E766F6B652074B6
:1002E500686973206C697374000200CC12037B0D7E
:0F02F5000A2062616420636F6D6D616E6420008A
:100304000200CC12037B0D0A2062616420706172CA
:0E031400616D6574657220000200CC120371E9
:0F0322001203BDC4F5F01203711203BD45F022A2
:10033100120371C2E5120369C3944050031203070B
:10034100C0E0941B4003120307D0E0229000E2EAD0
:0F035100230493C0E0EA2393C0E0227A507BFF9D
:100360007CFFDCFEDBFADAF622C299F5993099FDC2
:10037000223098FDE599547FC29822D083D082E440
:0F03800093B400028006120369A380F374017323
:0E038F00740A120369740D120369221203A589
:0F039D00120369EA12036922FA540F24F6500280
:1003AC002407243ACAC4540F24F650022407243AD2
:0F03BC0022C20024D05017C324F64003240A2283
:0F03CB00C2E5C324F95008C324FA4003540F229B
:0803DA00D2000200CC02000079
:00000001FF
