:060000000200A00200A0B6
:03000B000200A050
:030013000200A048
:03001B000200A040
:030023000200A038
:0F0050000203B702039F02038E020389020356C5
:0F005F0002031902036B0200CF0203D9020375DB
:09006E000203790203940203630A
:1000A000C2AF1200CF41542B50494E33333333008B
:1000B000D2B775812FC200D2AF1203750D0A434D1E
:0F00C000443E00C29812032BFA0203470200B914
:1000CF00758920758840758DFD7598502202EB0259
:1000DF00EB02EB02EB02EB02EB02EB02EB01D402C1
:1000EF00EB02EB02EB02EB02EB02EB02EB013E0247
:1000FF00EB015F012A011202EB018602EB02EB0218
:10010F00EB02EBB2B71203750A0D546F67676C659C
:10011F0064204C69676874000200CC120375415467
:0F012F002B50494E33333333001203890200CC77
:0F013E00743F120363120389120319F81203941A
:0F014D00743F120363120389120319F61203940D
:0F015C000200CC743F120363120389120319F8D7
:0F016B001203947C10E81203947420120363E6CD
:0F017A0012039412038908DCED0200CC120389F2
:100189001203750A0D426C7565746F6F7468204DA2
:0F0199006F6E69746F722050726F6772616D00C4
:1001A8001203750A0D30382F30332F323031322098
:1001B80056657273696F6E203161001203750A0DFE
:0F01C8006279204368726973000200CC120389C8
:1001D7001203750A0D417661696C61626C65206373
:1001E7006F6D6D616E647320617265206173206647
:1001F7006F6C6C6F77733A001203750A0D506F6B53
:100207006520202020202D2027502720666F6C6C2A
:100217006F776564206279206F6E652D62797465EA
:1002270020616464726573732041444452202B201B
:1002370062797465001203750A0D526561642020A6
:100247002020202D2027522720666F6C6C6F776542
:1002570064206279206F6E652D6279746520616410
:1002670064726573732041444452001203750A0D8A
:10027700546F67676C652020202D20275427207432
:0F0287006F20666C69702070696E20332E37000F
:100296001203750A0D56657273696F6E20202D2044
:1002A6002756272070726F766964657320766572AB
:1002B60073696F6E206D65737361676500120375F0
:1002C6000A0D48656C7020202020202D2027482705
:1002D60020696E766F6B652074686973206C69732C
:1002E60074000200CC1203750D0A2062616420635B
:1002F6006F6D6D616E6420000200CC1203750D0AED
:100306002062616420706172616D6574657220009F
:0F0316000200CC12036B1203B7C4F5F012036B95
:0F0325001203B745F02212036BC2E5120363C344
:1003340094405003120301C0E0941B4003120301D4
:0F034400D0E0229000DCEA230493C0E0EA239388
:10035300C0E0227A507BFF7CFFDCFEDBFADAF62278
:0F036300C299F5993099FD223098FDE599547FA4
:0E037200C29822D083D082E493B400028006A9
:10038000120363A380F3740173740A120363740D80
:100390001203632212039F120363EA12036322FA19
:1003A000540F24F650022407243ACAC4540F24F6EA
:1003B00050022407243A22C20024D05017C324F646
:0F03C0004003240A22C2E5C324F95008C324FADB
:0D03CF004003540F22D2000200CC020000B7
:00000001FF
