:02000000017885
:02000300017882
:02000B0001787A
:02001300017872
:02001B0001786A
:02002300017862
:02002B0001785A
:02003B0001784A
:02004300017842
:02005300017832
:02006B0001781A
:02007300017812
:0E007800E596D2E7D2E1F59675843C75858257
:0F008600759104759200759500C2AFC2D3C2D4B4
:0F009500E587D2E7F587758920758DD07588408E
:0E00A400759850C287C2811201F4D287D281B2
:1000B2001201F412021341542B554152543D393668
:1000C20030302C302C300D0A001201F41202134190
:0E00D200542B505357443D363636360D0A0037
:0F00E0001201F4C287C2811201F4D28775812FF9
:0E00EF00D2AF1202130D0A434D443E00C298D8
:0F00FD001201DDB47403020115B4760302012D64
:10010C00B468030201570200F1B2871202130A0D00
:0E011C00546F67676C6564204C6967687400F7
:10012A000201121202130A0D4254204D6F6E6974B5
:10013A006F72001202130A0D31362F30312F32300E
:10014A003136205665722D316100020112120213F6
:10015A000A0D417661696C61626C6520636F6D6D31
:10016A00616E64733A001202130A0D546F67676C6A
:10017A00652020202D2027542720746F20666C6963
:10018A0070204C4544001202130A0D5665727369B9
:10019A006F6E20202D202756272070726F76696493
:1001AA0065732076657273696F6E001202130A0D09
:1001BA0048656C7020202020202D202748272069A0
:1001CA006E766F6B652074686973206C697374004E
:0F01DA00020112120209C0E0C394615007D0E085
:0F01E900D2E50201F0D0E0120201227A5F7BFF23
:1001F8007CFFDCFEDBFADAF622C299F5993099FD2C
:10020800223098FDE599547FC29822D083D082E4A9
:0F02180093B400028006120201A380F3740173F5
:00000001FF
