:0F00000075A000758920758840758DFD75985025
:10000F00C299D28EC2983098FDE599B448028012F9
:10001F00B45303F88012B44703F88012B44DE5F8D7
:0E002F00801290017B0201549002F5020154F0
:0F003D009003100201549003340201549000000C
:10004C007F00C2983098FDE599B446040F12015D0B
:0E005C00B44C040F12015DB452040F12015D8A
:0E006A00B445040F12015DB457040F12015D7E
:0F007800B458D3F802011B900000EFFE0F740084
:0F008700120169A3800C90034475A0000201547C
:10009600020013B446028014B44C028020B452020B
:1000A600803DB457028016B445D5803374117D0166
:0F00B6007C80F5A00371B2DCF9DDF580CA7D0115
:1000C5007C807411F5A071B27428F5A071B27444E6
:1000D500F5A071B27482F5A071B2DCE6DDE280A80C
:1000E5007D017C807411F5A071B27482F5A071B2A6
:1000F5007444F5A071B27428F5A071B2DCE6DDE2B6
:0E01050002008D120169120173A3DFF7EEFFF5
:0E011300900390795A02015490037602015431
:0E012100020013B8530875961B7800020049BF
:10012F00B84705780002007FB8580875960B78001D
:0F013F00020096B85A04780080D8B84DD57800E1
:10014E00900000020108E49360CC316BA380F7F0BD
:0F015E001203B21203B21203B2A322E022F599E8
:10016D003099FDC29922C299F5993099FD224176B7
:10017D0061696C61626C6520436F6D6D616E647356
:10018D003A0A53202D2053746172742050617468A3
:10019D002050726F6772616D6D696E670A4D202D0B
:1001AD0020446973706C61792050726F6772616D54
:1001BD006D656420506174680A47202D2053746169
:1001CD007274204D6F76656D656E740A48202D2012
:1001DD0053686F7720546869732048656C70204CA4
:1001ED006973740A506174682050726F6772616D23
:1001FD006D696E67204D6F6465202E2E2E0A4D6F32
:10020D0076656D656E7420636F6D6D616E647320C0
:10021D0077696C6C2062652073746F7265642069F8
:10022D006E206D656D6F72792E0A50617468205065
:10023D00726F6772616D6D696E67204D6F646520B9
:10024D00436F6D6D616E6473203A0A46202D204D0B
:10025D006F766520466F727761726473204F6E659D
:10026D002056656869636C65204C656E6774680A15
:10027D004C202D20393020446567726565204C6512
:10028D006674205475726E0A52202D203930204428
:10029D006567726565205269676874205475726E62
:1002AD000A45202D2034352044656772656520523E
:1002BD0069676874205475726E0A57202D20343585
:1002CD0020446567726565204C65667420547572AF
:1002DD006E0A58202D2053746F702050726F677204
:1002ED00616D6D696E670A00456E746572696E6742
:1002FD002050726F6772616D6D696E67204D6F640E
:10030D00650A005374617274696E67204D6F76656E
:10031D006D656E742C20506C656173652057616935
:10032D0074202E2E2E0A004D6F76656D656E74202D
:10033D004C6973743A0A004D6F76656D656E742065
:10034D00436F6D706C657465202E2E2E0A52657488
:10035D0075726E696E6720746F2053746172747557
:10036D0070204D6F64652E0A0045786974696E675B
:10037D002050726F6772616D6D696E67204D6F648D
:10038D00650A00456E64206F66204D6F76656D655C
:10039D006E74204C6973742E0A007C0B7D60000016
:1003AD00DDFCDCF8227C047DC20000DDFCDCF822E3
:00000001FF
