:0F00000075A000758920758840758DFD75985025
:10000F00C299D28EC2983098FDE599B448028012F9
:10001F00B45303F88012B44703F88012B44DE5F8D7
:0E002F0080129001C80201A19003420201A1BB
:0F003D0090035D0201A19003810201A1900000D8
:10004C007F00C2983098FDE599B446040F1201AABE
:0E005C00B44C040F1201AAB452040F1201AAF0
:0E006A00B445040F1201AAB457040F1201AAE4
:0F007800B458D3F8020168900000EFFE0F740037
:0F0087001201B6A3DF0C90039175A0000201A136
:0E009600020013B446051200C180E4B44C050C
:1000A4001200D180DCB452051200F280D4B457059A
:0F00B40012011380CCB445C912013480C47411F9
:1000C3007D107C80F5A00371FFDCF9DDF5227D1244
:1000D3007C107411F5A071FF7428F5A071FF7444AE
:0F00E300F5A071FF7482F5A071FFDCE6DDE2226B
:1000F2007D127C107411F5A071FF7482F5A071FF5E
:100102007444F5A071FF7428F5A071FFDCE6DDE20E
:0F011200227D017C407411F5A071FF7428F5A0C7
:1001210071FF7444F5A071FF7482F5A071FFDCE6E4
:0F013100DDE2227D017C407411F5A071FF748224
:10014000F5A071FF7444F5A071FF7428F5A071FF4C
:10015000DCE6DDE2221201B61201C0A3DFF7EEFFFA
:0E0160009003DD795A0201A19003C30201A1B0
:0E016E00020013B8530875961B780002004972
:10017C00B84705780002007FB8580875960B7800D0
:0F018C00020096B85A04780080D8B84DD5780094
:10019B00900000020155E49360CC31B8A380F7F0D6
:0F01AB001203FF1203FF1203FFA322E022F599B4
:1001BA003099FDC29922C299F5993099FD2241766A
:1001CA0061696C61626C6520436F6D6D616E647309
:1001DA003A0A53202D205374617274205061746856
:1001EA002050726F6772616D6D696E670A4D202DBE
:1001FA0020446973706C61792050726F6772616D07
:10020A006D656420506174680A47202D205374611B
:10021A007274204D6F76656D656E740A48202D20C4
:10022A0053686F7720546869732048656C70204C56
:10023A006973740A506174682050726F6772616DD5
:10024A006D696E67204D6F6465202E2E2E0A4D6FE4
:10025A0076656D656E7420636F6D6D616E64732073
:10026A0077696C6C2062652073746F7265642069AB
:10027A006E206D656D6F72792E0A50617468205018
:10028A00726F6772616D6D696E67204D6F6465206C
:10029A00436F6D6D616E6473203A0A46202D204DBE
:1002AA006F766520466F727761726473204F6E6550
:1002BA002056656869636C65204C656E6774680AC8
:1002CA004C202D20393020446567726565204C65C5
:1002DA006674205475726E0A52202D2039302044DB
:1002EA006567726565205269676874205475726E15
:1002FA000A45202D203435204465677265652052F1
:10030A0069676874205475726E0A57202D20343537
:10031A0020446567726565204C6566742054757261
:10032A006E0A58202D2053746F702050726F6772B6
:10033A00616D6D696E670A00456E746572696E67F4
:10034A002050726F6772616D6D696E67204D6F64C0
:10035A00650A005374617274696E67204D6F766521
:10036A006D656E742C20506C6561736520576169E8
:10037A0074202E2E2E0A004D6F76656D656E7420E0
:10038A004C6973743A0A004D6F76656D656E742018
:10039A00436F6D706C657465202E2E2E0A5265743B
:1003AA0075726E696E6720746F205374617274750A
:1003BA0070204D6F64652E0A0045786974696E670E
:1003CA002050726F6772616D6D696E67204D6F6440
:1003DA00650A00456E64206F66204D6F76656D650F
:1003EA006E74204C6973742E0A007A0B7B600000CD
:1003FA00DBFCDAF8227A047BC20000DBFCDAF822A2
:00000001FF
