:100866004C45445F4F4E004C45445F4F464600534F
:10087600656C6563742070726F706572206F70743A
:04088600696F6E0028
:100800001208AEE4F590C2901208CE8F08E508B445
:10081000310AD2907BFF7A087966800DE508B43200
:100820000DC2907BFF7A08796D12088A80DA7BFF0F
:090830007A08797512088A80CF5C
:0C08AE00758920758DFD759850D28E2242
:0808C6008F993099FDC29922BF
:0708CE003098FDC298AF99BC
:0108D5002200
:06088A008B098A0A890BAC
:10089000E4FDFCAB09AA0AA90B8D828C83120839EE
:0D08A000FF600A1208C60DBD00010C80E6C5
:0108AD002228
:030000000208BA39
:0C08BA00787FE4F6D8FD75810B02080081
:10083900BB010CE58229F582E5833AF583E0225074
:1008490006E92582F8E622BBFE06E92582F8E222BE
:0D085900E58229F582E5833AF583E49322D8
:00000001FF
