:0F000000754D00754E00754F007550007551001D
:10000F00D292D293D2B6D2B775A000C21075892002
:0F001F00758840758DFD759850C299D28EC29824
:10002E003098FDE599B448028012B45303F880125B
:0F003E00B44703F88012B44DE5F8801290035DCB
:0F004D0002030D9004D702030D9004F202030D7D
:0E005C0090051602030D900000753000C2984A
:10006A003098FDE599B44605053012033DB44C05B8
:10007A00053012033DB45205053012033DB445055F
:10008A00053012033DB45705053012033DB458CE6E
:0E009A00F80202D49000008530310530740069
:1000A800120349A3D5300C90052675A00002030D54
:1000B80002002CB446071200E5806E80E1B44C05BE
:1000C8001201E980D9B4520512022480D1B457052F
:0F00D80012025F80C9B445C612028F80C1741135
:1000E700753210753380F5A003B1ADD533F8F54AF5
:0F00F70020921BD210209318D21020B615D210D1
:0F01060020B712D2108010E54AD532D80201A6D8
:0E01150080E580E880EB80F085834B85824C8E
:0F012300900589020319854B83854C8280DCC3CC
:10013200E54E95504006F538C2118006F404F538B4
:10014200D211C3E54F95514006F539C2128006F42B
:0E01520004F539D21285834B85824C90059AB4
:0E016000020319854B83854C8230110AC29927
:10016E0075992D3099FDC2998538993099FDC299AE
:10017E00301212C29975992D3099FDC29975992C2C
:10018E003099FDC2998539993099FDC299850A99A0
:10019E003099FDC2990200C37400B54D03054F227C
:0F01AE007401B54D05054F054E227402B54D0382
:0F01BD00054E227403B54D050551054E227404FD
:1001CC00B54D030551227405B54D05055105502259
:1001DC007406B54D03055022054F05502275321299
:0F01EC007533107411F5A0B1AD7428F5A0B1AD45
:0F01FB007444F5A0B1AD7482F5A0B1ADD533E574
:0E020A00D532DF7400B54D04754D0622740127
:0F021800B54D04754D0722154D154D2275321247
:0F0227007533107411F5A0B1AD7482F5A0B1ADAF
:0F0236007444F5A0B1AD7428F5A0B1ADD533E592
:0E024500D532DF7406B54D04754D00227407E6
:0F025300B54D04754D0122054D054D227532063E
:0F0262007533107411F5A0B1AD7428F5A0B1ADCE
:0F0271007444F5A0B1AD7482F5A0B1ADD533E5FD
:0F028000D532DF7400B54D04754D0722154D22A0
:10028F007532067533107411F5A0B1AD7482F5A0F7
:0E029F00B1AD7444F5A0B1AD7428F5A0B1ADB9
:0F02AD00D533E5D532DF7407B54D04754D00220A
:1002BC00054D22120349120353A3D530F685313074
:0E02CC00900572795A02030D90055802030D39
:0E02DA0002002CB8530875961B7800020062D3
:1002E800B84705780002009EB8580875960B780044
:0F02F8000200B8B85A04780080D8B84DD5780005
:0F0307009000000202BFE49360CC714BA380F71B
:10031600020129E49360F9C299F5993099FDC299D1
:0F032600A3020319020163E49360F9C299F599E8
:0F0335003099FDC299A380F0F01205AD1205AD0D
:0F0344001205ADA322E022F5993099FDC299224E
:10035300C299F5993099FDC29922417661696C6120
:10036300626C6520436F6D6D616E64733A0A53204E
:100373002D20537461727420506174682050726F21
:100383006772616D6D696E670A4D202D2044697334
:10039300706C61792050726F6772616D6D65642056
:1003A300506174680A47202D205374617274204D84
:1003B3006F76656D656E740A48202D2053686F77DC
:1003C30020546869732048656C70204C6973740A03
:1003D300506174682050726F6772616D6D696E67EA
:1003E300204D6F6465202E2E2E0A4D6F76656D6548
:1003F3006E7420636F6D6D616E64732077696C6CCE
:100403002062652073746F72656420696E206D6568
:100413006D6F72792E0A506174682050726F677223
:10042300616D6D696E67204D6F646520436F6D6DFF
:10043300616E6473203A0A46202D204D6F76652045
:10044300466F727761726473204F6E6520566568DC
:1004530069636C65204C656E6774680A4C202D20B7
:10046300393020446567726565204C656674205495
:1004730075726E0A52202D203930204465677265EB
:1004830065205269676874205475726E0A45202D81
:100493002034352044656772656520526967687446
:1004A300205475726E0A57202D2034352044656719
:1004B300726565204C656674205475726E0A582007
:1004C3002D2053746F702050726F6772616D6D6968
:1004D3006E670A00456E746572696E672050726FAD
:1004E3006772616D6D696E67204D6F64650A0053B5
:1004F30074617274696E67204D6F76656D656E7495
:100503002C20506C656173652057616974202E2E11
:100513002E0A004D6F76656D656E74204C69737499
:100523003A0A004D6F76656D656E7420436F6D708A
:100533006C657465202E2E2E0A52657475726E6971
:100543006E6720746F2053746172747570204D6FE1
:1005530064652E0A0045786974696E672050726F6E
:100563006772616D6D696E67204D6F64650A004542
:100573006E64206F66204D6F76656D656E74204CDA
:100583006973742E0A004F626A656374204465744C
:1005930065637465640A00436F2D6F7264696E61ED
:1005A3007465733A20582C590A007535057534B7AC
:0C05B3000000D534FBD535F50000002217
:00000001FF
