:0F000000753600753700753800753900753A0090
:0E000F00D292D293D2B6D2B775A000758920D6
:0F001D00758840758DFD759850C299D28EC29826
:10002C003098FDE599B448028012B45303F880125D
:0F003C00B44703F88012B44DE5F88012900284A7
:0F004B0002025B9003FE02025B90041902025B4B
:0E005A0090043D02025B900000753000C298D9
:100068003098FDE599B446050530120264B44C0594
:100078000530120264B452050530120264B4450515
:100088000530120264B457050530120264B458CE24
:0E009800F8020222900000853031053074001D
:1000A600120270A3D5300C90044D75A00002025BBD
:0E00B60002002AB446051200E180E3B44C05B6
:1000C40012013780DBB4520512017280D3B4570594
:0F00D4001201AD80CBB445C81201DD80C3741199
:0E00E300753210753380F5A00391B0D533F857
:1000F100D532F27400B536030538227401B53605E0
:0F01010005380537227402B5360305372274031B
:10011000B53605053A0537227404B53603053A228B
:0F0120007405B53605053A0539227406B5360360
:10012F0005392205380539227532127533107411CD
:10013F00F5A091B07428F5A091B07444F5A091B0DA
:0E014F007482F5A091B0D533E5D532DF74008F
:10015D00B53604753606227401B536047536072298
:0F016D0015361536227532127533107411F5A040
:10017C0091B07482F5A091B07444F5A091B074283C
:0F018C00F5A091B0D533E5D532DF7406B5360452
:0F019B00753600227407B5360475360122053615
:0F01AA000536227532067533107411F5A091B029
:1001B9007428F5A091B07444F5A091B07482F5A0AB
:1001C90091B0D533E5D532DF7400B53604753607FD
:1001D900221536227532067533107411F5A091B0C7
:1001E9007482F5A091B07444F5A091B07428F5A07B
:1001F90091B0D533E5D532DF7407B53604753600CD
:0E0209002205362212027012027AA3D530F6B8
:0E021700853130900499795A02025B90047F81
:0E02250002025B02002AB8530875961B78008F
:0E023300020060B84705780002009CB8580829
:0F02410075960B78000200B6B85A04780080D882
:0F025000B84DD5780090000002020DE49360CC09
:10025F005172A380F7F01204B01204B01204B0A3CD
:0F026F0022E022F5993099FDC29922C299F599A2
:10027E003099FDC29922417661696C61626C65208C
:10028E00436F6D6D616E64733A0A53202D20537463
:10029E0061727420506174682050726F6772616D64
:1002AE006D696E670A4D202D20446973706C6179FB
:1002BE002050726F6772616D6D6564205061746855
:1002CE000A47202D205374617274204D6F76656D30
:1002DE00656E740A48202D2053686F772054686924
:1002EE00732048656C70204C6973740A5061746891
:1002FE002050726F6772616D6D696E67204D6F640D
:10030E0065202E2E2E0A4D6F76656D656E742063F8
:10031E006F6D6D616E64732077696C6C2062652001
:10032E0073746F72656420696E206D656D6F72797E
:10033E002E0A506174682050726F6772616D6D691C
:10034E006E67204D6F646520436F6D6D616E6473D3
:10035E00203A0A46202D204D6F766520466F727723
:10036E0061726473204F6E652056656869636C65B3
:10037E00204C656E6774680A4C202D20393020445D
:10038E006567726565204C656674205475726E0AD9
:10039E0052202D20393020446567726565205269E0
:1003AE00676874205475726E0A45202D20343520EE
:1003BE00446567726565205269676874205475726A
:1003CE006E0A57202D2034352044656772656520EE
:1003DE004C656674205475726E0A58202D20537425
:1003EE006F702050726F6772616D6D696E670A0073
:1003FE00456E746572696E672050726F6772616DBB
:10040E006D696E67204D6F64650A00537461727476
:10041E00696E67204D6F76656D656E742C20506C1D
:10042E00656173652057616974202E2E2E0A004D6A
:10043E006F76656D656E74204C6973743A0A004D63
:10044E006F76656D656E7420436F6D706C65746547
:10045E00202E2E2E0A52657475726E696E67207488
:10046E006F2053746172747570204D6F64652E0A1F
:10047E000045786974696E672050726F6772616D9E
:10048E006D696E67204D6F64650A00456E64206F5E
:10049E0066204D6F76656D656E74204C6973742E93
:1004AE000A007535057534B70000D534FBD535F522
:0404BE000000002218
:00000001FF
