:0F000000753800753900753A00753B00753C0086
:0F000F0075A000758920758840758DFD75985016
:10001E00C299D28EC2983098FDE599B448028012EA
:10002E00B45303F88012B44703F88012B44DE5F8C8
:0E003E0080129002780202519003F2020251E9
:0F004C0090040D02025190043102025190000005
:0F005B00753000C2983098FDE599B44605053020
:10006A0012025AB44C05053012025AB45205053030
:10007A0012025AB44505053012025AB45705053022
:10008A0012025AB458CEF802021890000085303293
:0E009A0005307400120266A3D5300C900441AC
:0F00A80075A000020251020022B446051200D9D1
:1000B70080E3B44C0512013B80DBB4520512016E9C
:1000C70080D3B457051201A180CBB445C81201D221
:0F00D70080C37411753410753580F5A00391B393
:0F00E600D535F80200F0D534EF227400B5380498
:0F00F500053A80F37401B53806053A053980E8FD
:100104007402B53804053980DF7403B53806053C3C
:0F011400053980D47404B53804053C80CB7405DC
:10012300B53806053C053B80C07406B53804053B6D
:1001330080B7053A053B80B17400B53805753806BC
:100143008004153815387534127535107411F5A0FF
:1001530091B37428F5A091B37444F5A091B374825C
:10016300F5A091B3D535E5D534DF227406B538054E
:0F0173007538008004053805387534127535105D
:100182007411F5A091B37482F5A091B37444F5A0F3
:0F01920091B37428F5A091B3D535E5D534DF22AC
:0F01A1007400B5380575380780021538753406B7
:0F01B0007535107411F5A091B37428F5A091B3B3
:0F01BF007444F5A091B37482F5A091B3D535E5E2
:1001CE00D534DF227407B53805753800800205383E
:1001DE007534067535107411F5A091B37482F5A0BF
:0E01EE0091B37444F5A091B37428F5A091B3B9
:0E01FC00D535E5D534DF22120266120270A35B
:0E020A00D530F685323090048D795A020251BB
:0F021800900473020251020022B8530875961B1E
:100227007800020058B847057800020094B85808CB
:0F02370075960B78000200AEB85A04780080D894
:0F024600B84DD57800900000020203E49360CC1D
:100255005168A380F7F01204B31204B31204B3A3D8
:0F02650022E022F5993099FDC29922C299F599AC
:100274003099FD22417661696C61626C6520436F3F
:100284006D6D616E64733A0A53202D20537461724C
:100294007420506174682050726F6772616D6D696B
:1002A4006E670A4D202D20446973706C617920506B
:1002B400726F6772616D6D656420506174680A477E
:1002C400202D205374617274204D6F76656D656EB8
:1002D400740A48202D2053686F772054686973206E
:1002E40048656C70204C6973740A506174682050BE
:1002F400726F6772616D6D696E67204D6F64652002
:100304002E2E2E0A4D6F76656D656E7420636F6DAB
:100314006D616E64732077696C6C20626520737400
:100324006F72656420696E206D656D6F72792E0A37
:10033400506174682050726F6772616D6D696E6789
:10034400204D6F646520436F6D6D616E6473203A58
:100354000A46202D204D6F766520466F72776172B4
:100364006473204F6E652056656869636C65204C24
:10037400656E6774680A4C202D2039302044656707
:10038400726565204C656674205475726E0A52203D
:100394002D2039302044656772656520526967688D
:1003A40074205475726E0A45202D2034352044651E
:1003B40067726565205269676874205475726E0AA5
:1003C40057202D20343520446567726565204C65BF
:1003D4006674205475726E0A58202D2053746F7001
:1003E4002050726F6772616D6D696E670A00456EA9
:1003F400746572696E672050726F6772616D6D69A2
:100404006E67204D6F64650A005374617274696E7F
:1004140067204D6F76656D656E742C20506C656138
:1004240073652057616974202E2E2E0A004D6F7655
:10043400656D656E74204C6973743A0A004D6F766D
:10044400656D656E7420436F6D706C657465202EE8
:100454002E2E0A52657475726E696E6720746F2051
:1004640053746172747570204D6F64652E0A004573
:10047400786974696E672050726F6772616D6D6917
:100484006E67204D6F64650A00456E64206F6620B8
:100494004D6F76656D656E74204C6973742E0A0019
:0F04A40075370B7536600000D536FBD537F5225E
:0F04B3007537047536C20000D536FBD537F522F4
:00000001FF
