:0F00000075A000758920758840758DFD75985025
:10000F00C299D28EC2983098FDE599B448028012F9
:10001F00B45303F88012B44703F88012B44DE5F8D7
:0E002F0080129001E90201C29003630201C237
:0F003D0090037E0201C29003A20201C290000054
:0F004C00753000C2983098FDE599B4460505302F
:10005B001201CBB44C0505301201CBB4520505305F
:10006B001201CBB4450505301201CBB45705053051
:0F007B001201CBB458CEF8020189900000E53095
:10008A00F532053074001201D7A3D5300C9003B2B3
:0F009A0075A0000201C2020013B446051200CB8C
:1000A90080E3B44C051200DF80DBB4520512010471
:1000B90080D3B4570512012980CBB445C812014E2B
:0F00C90080C37411753410753580F5A003912034
:0F00D800D535F8D534F222753412753510741100
:1000E700F5A091207428F5A091207444F5A09120E3
:1000F7007482F5A09120D535E5D534DF2275341209
:0F0107007535107411F5A091207482F5A0912028
:0F0116007444F5A091207428F5A09120D535E50B
:10012500D534DF227534017535407411F5A0912061
:100135007428F5A091207444F5A091207482F5A04F
:0F0145009120D535E5D534DF227534017535406D
:100154007411F5A091207482F5A091207444F5A047
:0F01640091207428F5A09120D535E5D534DF2200
:0E0173001201D71201E1A3D530F6E532F530C6
:0E0181009003FE795A0201C29003E40201C20B
:0E018F00020013B8530875961B780002004951
:10019D00B847057800020085B8580875960B7800A9
:0F01AD000200A0B85A04780080D8B84DD5780069
:1001BC00900000020173E49360CC31D9A380F7F076
:0F01CC00120420120420120420A322E022F5992D
:1001DB003099FDC29922C299F5993099FD22417649
:1001EB0061696C61626C6520436F6D6D616E6473E8
:1001FB003A0A53202D205374617274205061746835
:10020B002050726F6772616D6D696E670A4D202D9C
:10021B0020446973706C61792050726F6772616DE5
:10022B006D656420506174680A47202D20537461FA
:10023B007274204D6F76656D656E740A48202D20A3
:10024B0053686F7720546869732048656C70204C35
:10025B006973740A506174682050726F6772616DB4
:10026B006D696E67204D6F6465202E2E2E0A4D6FC3
:10027B0076656D656E7420636F6D6D616E64732052
:10028B0077696C6C2062652073746F72656420698A
:10029B006E206D656D6F72792E0A506174682050F7
:1002AB00726F6772616D6D696E67204D6F6465204B
:1002BB00436F6D6D616E6473203A0A46202D204D9D
:1002CB006F766520466F727761726473204F6E652F
:1002DB002056656869636C65204C656E6774680AA7
:1002EB004C202D20393020446567726565204C65A4
:1002FB006674205475726E0A52202D2039302044BA
:10030B006567726565205269676874205475726EF3
:10031B000A45202D203435204465677265652052CF
:10032B0069676874205475726E0A57202D20343516
:10033B0020446567726565204C6566742054757240
:10034B006E0A58202D2053746F702050726F677295
:10035B00616D6D696E670A00456E746572696E67D3
:10036B002050726F6772616D6D696E67204D6F649F
:10037B00650A005374617274696E67204D6F766500
:10038B006D656E742C20506C6561736520576169C7
:10039B0074202E2E2E0A004D6F76656D656E7420BF
:1003AB004C6973743A0A004D6F76656D656E7420F7
:1003BB00436F6D706C657465202E2E2E0A5265741A
:1003CB0075726E696E6720746F20537461727475E9
:1003DB0070204D6F64652E0A0045786974696E67ED
:1003EB002050726F6772616D6D696E67204D6F641F
:1003FB00650A00456E64206F66204D6F76656D65EE
:10040B006E74204C6973742E0A007A0B7B600000AB
:10041B00DBFCDAF8227A047BC20000DBFCDAF82280
:00000001FF
