:0F000000754D00754E00754F007550007551001D
:10000F00D292D293D2B6D2B775A000C21075892002
:0F001F00758840758DFD759850C299D28EC29824
:10002E003098FDE599B448028012B45303F880125B
:0F003E00B44703F88012B44DE5F88012900362C6
:0F004D000203139004DC0203139004F702031361
:0E005C0090051B020313900000753000C2983F
:10006A003098FDE599B446050530120342B44C05B3
:10007A000530120342B452050530120342B4450555
:10008A000530120342B457050530120342B458CE64
:0E009A00F80202DA9000008530310530740063
:1000A80012034EA3D5300C90052B75A00002031344
:1000B80002002CB446071200E5806C80E1B44C05C0
:1000C8001201EF80D9B4520512022A80D1B4570523
:0F00D80012026580C9B445C612029580C1741129
:1000E700753210753380F5A003B1B2D533F8F54AF0
:0F00F70020921BD210209318D21020B615D210D1
:0F01060020B712D210800EE54AD532D80201ACD4
:0F01150080E580E880EB85834B85824C90058EDA
:1001240002031F854B83854C8280DEC3E54E9550C8
:100134004008F5382441C2118008F404F5382441FC
:0F014400D211C3E54F95514008F5392441C2123D
:100153008008F404F5392441D21285834B85824CFF
:0F01630090059F02031F854B83854C8230110A44
:10017200C29975992D3099FDC2998538993099FDAA
:0F018200C299301212C29975992D3099FDC29908
:1001910075992C3099FDC2998539993099FDC2998B
:1001A100850A993099FDC2990200C37400B54D03C7
:0F01B100054F227401B54D05054F054E2274020E
:1001C000B54D03054E227403B54D050551054E226C
:0F01D0007404B54D030551227405B54D05055155
:1001DF000550227406B54D03055022054F055022D8
:1001EF007532127533107411F5A0B1B27428F5A0E1
:0E01FF00B1B27444F5A0B1B27482F5A0B1B2F1
:0F020D00D533E5D532DF7400B54D04754D0622AB
:0E021C007401B54D04754D0722154D154D2288
:10022A007532127533107411F5A0B1B27482F5A04B
:0E023A00B1B27444F5A0B1B27428F5A0B1B20F
:0F024800D533E5D532DF7406B54D04754D002270
:0E0257007407B54D04754D0122054D054D226D
:100265007532067533107411F5A0B1B27428F5A076
:0E027500B1B27444F5A0B1B27482F5A0B1B27A
:0F028300D533E5D532DF7400B54D04754D072234
:0F029200154D227532067533107411F5A0B1B2F7
:1002A1007482F5A0B1B27444F5A0B1B27428F5A07E
:1002B100B1B2D533E5D532DF7407B54D04754D00C4
:0E02C10022054D2212034E120358A3D530F62B
:0E02CF00853130900577795A02031390055D52
:0E02DD0002031302002CB8530875961B78001C
:0E02EB00020062B84705780002009EB858086D
:0F02F90075960B78000200B8B85A04780080D8C8
:0F030800B84DD578009000000202C5E49360CC98
:100317007150A380F7020127E49360F9C299F59918
:0F0327003099FDC299A380F0020169E49360F957
:10033600C299F5993099FDC299A380F0F01205B2E1
:0F0346001205B21205B2A322E022F5993099FDFB
:10035500C29922C299F5993099FDC29922417661D7
:10036500696C61626C6520436F6D6D616E64733A93
:100375000A53202D205374617274205061746820D3
:1003850050726F6772616D6D696E670A4D202D2021
:10039500446973706C61792050726F6772616D6D1D
:1003A500656420506174680A47202D20537461727A
:1003B50074204D6F76656D656E740A48202D205347
:1003C500686F7720546869732048656C70204C69A4
:1003D50073740A506174682050726F6772616D6D35
:1003E500696E67204D6F6465202E2E2E0A4D6F763F
:1003F500656D656E7420636F6D6D616E64732077D6
:10040500696C6C2062652073746F72656420696E17
:10041500206D656D6F72792E0A5061746820507277
:100425006F6772616D6D696E67204D6F64652043FE
:100435006F6D6D616E6473203A0A46202D204D6FF5
:10044500766520466F727761726473204F6E652002
:1004550056656869636C65204C656E6774680A4CFF
:10046500202D20393020446567726565204C65660E
:1004750074205475726E0A52202D2039302044653F
:1004850067726565205269676874205475726E0AD3
:1004950045202D20343520446567726565205269F5
:1004A500676874205475726E0A57202D20343520E4
:1004B500446567726565204C656674205475726E77
:1004C5000A58202D2053746F702050726F67726127
:1004D5006D6D696E670A00456E746572696E672099
:1004E50050726F6772616D6D696E67204D6F6465DF
:1004F5000A005374617274696E67204D6F76656D7D
:10050500656E742C20506C65617365205761697444
:10051500202E2E2E0A004D6F76656D656E74204C6B
:100525006973743A0A004D6F76656D656E74204384
:100535006F6D706C657465202E2E2E0A526574756C
:10054500726E696E6720746F205374617274757072
:10055500204D6F64652E0A0045786974696E6720C1
:1005650050726F6772616D6D696E67204D6F64655E
:100575000A00456E64206F66204D6F76656D656E69
:1005850074204C6973742E0A004F626A6563742087
:1005950044657465637465640A00436F2D6F726406
:1005A500696E617465733A20582C590A00753505D2
:0F05B5007534B70000D534FBD535F500000022B2
:00000001FF
